:1000000090010075A0FF781479007A007B027C01D2
:100010007D04758911758C3C758AB0758DFC758B66
:1000200018D28CD28E308D28C28CC28D758C3C75C6
:100030008AB0D28CD81A781409B90A1479000ABA8D
:10004000060E7A000BBB0A087B000CBC0A027C007F
:10005000308F49C28EC28F758DFC758B18D28EBDC4
:10006000040C75A000E993F58075A001802DBD03F7
:100070000C75A000EA93F58075A002801EBD020CED
:1000800075A000EB93F58075A004800FBD010C7581
:0E009000A000EC93F58075A0087D051D80870B
:0A010000C0F9A4B0999282F8809033
:00000001FF
