:03000000020030CB
:03000B000200CD23
:03001B0002014798
:0300030002018A6D
:030013000201C126
:1000300075A88F75B80A7532007533007534007570
:1000400035007536027537017552007553007554C9
:1000500002755501754800753C40753D79753E2423
:10006000753F3075401975411275420275437875B8
:10007000440075451875A0DF7580FF758911758C72
:10008000F8758A7A758DFE758B0CD28C7A007E009D
:10009000D29030B102800C75520075530075540037
:1000A000755500E4E534B552010EE4E535B553016C
:1000B0000EE4E536B554010EE4E537B555010EE41E
:1000C000BE04047E00C2907E00D29080C5D28EC253
:1000D0008E758CF8758A39054875A00030B434D215
:1000E000917901E534BA000280207902E535BA0140
:1000F0000280177904E536BA0202800E7908E537E6
:100100007A00BA030280037A001A0A89A0243CF814
:10011000868032C2917901E552BA000280207902CC
:10012000E553BA010280177904E554BA0202800E41
:100130007908E5557A00BA030280037A001A0A8921
:10014000A0243CF8868032758DFE758B0C0532AB91
:1001500032BB0A357532000533AB33BB062B753322
:10016000000534AB34BB0A217534000535AB35BB13
:1001700006177535000536AB36BB0A0D753600051A
:0A01800037AB37BB030375370032BD
:10018A00754800AC48BC50FB30B40380CA320552F3
:10019A00AB52BB0A217552000553AB53BB06177508
:1001AA0053000554AB54BB0A0D7554000555AB55A5
:1001BA00BB03037555003275320075330075340080
:0A01CA0075350075360275370132F5
:00000001FF
